:020000040800F2
:100000008004002049010008BB0E0008B30D000861
:10001000B90E0008B5010008BD0F0008000000007F
:10002000000000000000000000000000BF0E0008FB
:10003000B701000800000000BD0E0008C10E000856
:100040006301000863010008630100086301000800
:1000500063010008630100086301000863010008F0
:1000600063010008630100086301000863010008E0
:1000700063010008630100086301000863010008D0
:1000800063010008630100086301000863010008C0
:1000900063010008630100086301000863010008B0
:1000A00063010008630100086301000863010008A0
:1000B0006301000863010008630100086301000890
:1000C0006301000863010008630100086301000880
:1000D0006301000863010008630100086301000870
:1000E0006301000863010008630100086301000860
:1000F0006301000863010008630100086301000850
:10010000630100086301000863010008630100083F
:100110006301000863010008250F0008630100085F
:10012000630100086301000863010008630100081F
:10013000DFF810D000F02CF8004800470513000845
:10014000AFF300808004002006488047064800473F
:10015000FEE7FEE7FEE7FEE7FEE7FEE7FEE7FEE777
:10016000FEE7FEE7230F000831010008D2B201E0EC
:1001700000F8012B491EFBD270470022F6E710B5AC
:1001800013460A4604461946FFF7F0FF204610BD05
:10019000064C074D06E0E06840F0010394E80700D4
:1001A00098471034AC42F6D3FFF7C6FF7416000828
:1001B00094160008FEE7704772B6FEE770B5044675
:1001C00000F014F90546601C02D00448007804448D
:1001D00000F00CF9401BA042FAD370BD24000020AF
:1001E0002DE9F84FDFF8C891002409F1040A0AF15B
:1001F000040B23460F270BF1040ED1E00125A54087
:1002000006EA0502AA4276D1DFF8A8C14E68A6EB3D
:100210000C0866452BD00DDC032E34D005DC36B33C
:10022000012E19D0022E2FD11BE0112E16D0122E26
:100230002AD119E0B8F5881F19D006DCB8F5803F3F
:1002400015D0B8F5801F1FD111E0B8F5001F0ED0F2
:10025000B8F5041F18D10AE0CB6815E0CB681B1D68
:1002600012E0CB6808330FE0CB680C330CE08B68EE
:100270002BB1012B4FF0080303D0456104E00423A8
:1002800002E0056100E00023FF2A01D8064601E0F4
:1002900000F104064FEA840501D9A5F12005D6F83E
:1002A000008007FA05FC28EA0C0803FA05F548EA7D
:1002B0000508C6F800804D68ED0070D53E4DAE696A
:1002C00046F00106AE61AD6924F0030605F00105B4
:1002D00000953A4D06EB050CDCF80850A607360FE2
:1002E00007FA06F825EA0805DFF8D480404503D16F
:1002F0004FF0000825E052E0DFF8C880404502D109
:100300004FF001081DE0DFF8C080404502D14FF0FA
:10031000020816E0DFF8B480404502D14FF0030830
:100320000FE0DFF8AC80404502D14FF0040808E050
:10033000DFF8A080404502D14FF0050801E04FF002
:10034000060808FA06F848EA0508CCF808804D685F
:10035000D9F80060ED034D4601D5164300E0964301
:100360002E604D68DAF80060AD03554601D516439E
:1003700000E096432E604D68DBF80060ED025D46BC
:1003800001D5164300E096432E604D68DEF800600C
:10039000AD02754601D5164300E096432E60641CFD
:1003A0000A681646E2407FF429AFBDE8F88F0000E6
:1003B0000004014000001110001002400000014044
:1003C00000080140000C01400010014000140140F1
:1003D00000180140001C01408068084000D0012046
:1003E00070470AB1016170470904FBE70148806862
:1003F0007047000024000020024881680278114400
:100400008160704724000020074810B5016841F062
:1004100010010160032000F075F8002000F006F8DC
:1004200000F024F8002010BD0020024070B50D4DF2
:1004300004464FF47A712878B1FBF0F00A49096854
:10044000B1FBF0F000F0CCFA48B9102C07D2002232
:100450002146501E00F036F800206C6070BD01206F
:1004600070BD000024000020300000200C4808B5BA
:10047000816941F001018161816901F0010100910F
:10048000C16941F08051C161C06900F080500090A5
:100490000448416821F0E06141F00071416008BD0D
:1004A0000010024000000140002809DB00F01F029C
:1004B000012191404009800000F1E020C0F80011C6
:1004C00070470000F0B40E4B1B680C46C3F30223C8
:1004D000C3F10705042D00D90425191D072901D2F0
:1004E000002300E0DB1E012606FA05F1491E21402B
:1004F00099409E40761E16403143F0BC00F05FBD2F
:100500000CED00E0064900F0070208684FF6FF0313
:10051000184040EA0220034A104308607047000078
:100520000CED00E00000FA052DE9F0470F4605004C
:1005300061D0434E306800F00700B84209D23068FD
:1005400020F0070038433060306800F00700B84200
:1005500051D128683B4C810712D5400703D560680C
:1005600040F4E06060602878000703D5606840F4DC
:10057000605060606068A96820F0F0000843606027
:100580002878C00728D06868012810D02168022880
:1005900010D0890700292EDA616821F00301014398
:1005A0006160FFF723FF804641F288390DE0216842
:1005B0008903EFE78901EDE7FFF718FFA0EB0801DA
:1005C000494502D90320BDE8F0876068696800F0FA
:1005D0000C00B0EB810FEFD1306800F00700B8429B
:1005E0000BD9306820F0070038433060306800F0E5
:1005F0000700B84201D00120E5E72878400705D57B
:100600006068E96820F4E0600843606028780007CB
:1006100006D56068296920F4605040EAC100606036
:1006200000F018F86168084AC1F30311515CC84032
:100630000649086006480068FFF7F8FE0020C2E798
:100640000020024000100240641600083000002024
:100650002800002012A185B00FC98DE80F0014A05A
:10066000144A006804905168134801F00C03042BED
:1006700010D0082B0ED1C1F38343C9031DF803002A
:100680000AD5516804AAC1F34041515C0A4A50435B
:10069000B0FBF1F005B0704708494843FAE70000A5
:1006A00002030405060708090A0B0C0D0E0F1010B3
:1006B000010200000010024000127A0000093D0013
:1006C0002DE9F84F040070D02078C04DC00749D004
:1006D0006868C0F38100012807D06868C0F3810012
:1006E000022809D16868C00306D52868800339D577
:1006F00060680028E7D035E06068B0F5803F0BD037
:1007000010B1B0F5A02F11D0286820F480302860F7
:10071000286820F4802002E0286840F480302860B7
:10072000606890B1FFF762FE06460AE0286840F470
:1007300080202860F0E700BFFFF758FE801B642888
:1007400073D828688003F7D50CE0FFF74FFE064604
:1007500005E000BFFFF74AFE801B6428F0D8286838
:100760008003F7D420789A4E80074FF001094FF0AC
:10077000000839D5686810F00C0F07D06868C0F31E
:100780008100022809D16868C00306D42868800760
:1007900014D52069012808D110E02069B0B1C6F84D
:1007A0000090FFF723FE074605E00AE1FFF71EFE73
:1007B000C01B0228C4D828688007F7D5286861695B
:1007C00020F0F80040EAC10028600DE0C6F8008083
:1007D000FFF70CFE074604E0FFF708FEC01B0228E7
:1007E00023D828688007F7D4207800072CD57948CB
:1007F000A169D9B1C0F80090FFF7F8FD074604E001
:10080000FFF7F4FDC01B02280FD8686A8007F7D5F0
:1008100071484FF4FA510068B0FBF1F0009000BF4E
:100820000098411E0091FAD20EE080E0C0F80080EE
:10083000FFF7DCFD074604E0FFF7D8FDC01B0228E8
:1008400075D8686A8007F7D42078400760D5E869D2
:100850000027C00008D4E86940F08050E861E869EA
:10086000012700F0805000905C480168C90513D44E
:100870000168834641F480710160FFF7B7FD82464D
:1008800006E000BFFFF7B2FDA0EB0A0064284ED8D7
:10089000DBF80000C005F5D5E06801280AD008B1F2
:1008A000052813D0286A20F001002862286A20F069
:1008B000040002E0286A40F001002862E06841F28A
:1008C000883B98B1FFF792FD82460BE0286A40F022
:1008D00004002862EEE700BFFFF788FDA0EB0A01E5
:1008E00059455AD8286A8007F6D50CE0FFF77EFDF7
:1008F000824605E0FFF77AFDA0EB0A0159454CD886
:10090000286A8007F6D41FB1E86920F08050E861BA
:10091000E06988B36968C1F38101022944D00228E3
:10092000C6F8608004D0FFF761FD044638E034E08B
:10093000FFF75CFD074604E0FFF758FDC01B0228E7
:100940002BD828688001F7D4206AB0F5803F05D104
:100950006868A16820F4003008436860D4E90801A1
:100960000843696821F4741108436860C6F8609010
:10097000FFF73CFD044606E025E000BFFFF736FD2B
:10098000001B022809D828688001F7D51BE000BFAA
:10099000FFF72CFD001B022802D90320BDE8F88FC9
:1009A00028688001F4D40EE00128F7D06868226A34
:1009B00000F48031914204D1616A00F470108842E1
:1009C00001D00120EAE70020E8E700000010024023
:1009D000000042428004424230000020007000408B
:1009E00010B5401EB0F1807F01D3012010BD4FF043
:1009F000E02460610F21601700F0E1FA0020A0619F
:100A000007202061002010BD7047704770B590F836
:100A10003C20012A2CD0012480F83C40022280F89E
:100A20003D2003685A689D6822F070060A683243C8
:100A30005A60104B02689A420ED00F4B9A420BD06C
:100A4000B2F1804F08D00D4B9A4205D00C4B9A4220
:100A500002D00C4B9A4204D1496825F08003194317
:100A6000916080F83D40002180F83C10084670BD40
:100A7000022070BD002C0140003401400004004001
:100A800000080040000C004010B5040003D094F8AA
:100A90003D0010B107E0012010BD002084F83C00AB
:100AA000204600F01FF8022084F83D00211D206838
:100AB00000F03EFA012084F8460084F83E0084F8F5
:100AC0003F0084F8400084F8410084F8420084F834
:100AD000430084F8440084F8450084F83D00002079
:100AE00010BD000008B500680B49884212D10B48C0
:100AF000C16941F01001C161C069002200F010001D
:100B0000009011463620FFF7DDFCBDE80840362096
:100B1000FFF7CABC08BD00000010004000100240F2
:100B200090F83D10012901D001207047022180F882
:100B30003D100168CA6842F00102CA6000680E49AF
:100B400088420ED00D4988420BD0B0F1804F08D0BA
:100B50000B49884205D00B49884202D00A49884295
:100B600004D1816801F00701062903D0016841F032
:100B70000101016000207047002C01400034014059
:100B80000004004000080040000C0040704770B5B1
:100B90000446006801694FF00005C943890715D470
:100BA000C168C943890711D4E91E0161012020777A
:100BB000206880698007204602D0FFF7E7FF04E045
:100BC00000F098F8204600F096F825772068016933
:100BD000C943490717D4C168C943490713D46FF003
:100BE00004010161022020772068806910F4407FB1
:100BF000204602D0FFF7CAFF04E000F07BF8204651
:100C000000F079F8257720680169C943090716D4EF
:100C1000C168C943090712D46FF0080101610420BB
:100C200020772068C0698007204602D0FFF7AEFF1A
:100C300004E000F05FF8204600F05DF825772068BA
:100C40000169C943C90617D4C168C943C90613D489
:100C50006FF010010161082020772068C06910F44E
:100C6000407F204602D0FFF791FF04E000F042F8F9
:100C7000204600F040F8257720680169C943C9077C
:100C800008D1C168C943C90704D1891E0161204642
:100C900000F032F820680169C943090609D4C16827
:100CA000C943090605D46FF0800101612046FFF7B2
:100CB000ABFE20680169C943490609D4C168C9432C
:100CC000490605D46FF040010161204600F070F83C
:100CD00020680169C94389060BD4C168C9438906E4
:100CE00007D46FF0200101612046BDE87040FFF796
:100CF0008CBE70BD7047704770B52949006809689F
:100D000088424AD1274C0025607968B1A179012633
:100D100005290DD02448042913D0032919D002290C
:100D20001FD0012925D02DE0A07900F099FA27E005
:100D300010211E48FFF750FB08B1257020E02670F7
:100D40001EE08021FFF748FB08B1657018E066706F
:100D500016E04021FFF740FB08B1A57010E0A67037
:100D60000EE02021FFF738FB08B1E57008E0E670DF
:100D700006E01021FFF730FB08B1257100E0267175
:100D8000607910B1A079401CA071A079052800D924
:100D9000A571607910B10020607170BD0120FBE782
:100DA0003400002000000020000801400010014035
:100DB0007047FEE72DE9F04385B0002429480094F0
:100DC000019402940394816941F020018161816959
:100DD00001F020010491816941F010018161816974
:100DE00001F010010491816941F004018161806981
:100DF000DFF8749000F004000490002207214846B8
:100E0000FFF7EFFADFF8648040F60F7700223946EB
:100E10004046FFF7E6FA072001250226CDE9000546
:100E2000CDE9024669464846FFF7DAF9009703968E
:100E3000CDE9015469464046FFF7D2F9F020CDE9EB
:100E40000004694640460294FFF7CAF91020CDE934
:100E50000004694648460294FFF7C2F905B0BDE8B0
:100E6000F083000000100240001001400008014023
:100E70001CB500240F4800940D490194016041F60F
:100E80001F41C0E9011440F2E7318461C160FFF7FE
:100E9000FBFD08B1FFF790F90094694605480194FD
:100EA000FFF7B4FD002801D0FFF786F91CBD000054
:100EB0000010004034000020FEE7FEE77047704756
:100EC000FFF79ABA30B58FB028216846FFF755F979
:100ED00014210AA8FFF751F901210804CDE90010F7
:100EE0000024029402250491CDE907504FF4E0104C
:100EF00009906846FFF7E4FB08B172B6FEE70F20E1
:100F0000CDE90A054FF48060CDE90C4002210AA822
:100F10000E94FFF709FB002801D072B6FEE70FB070
:100F200030BD70470148FFF732BE0000340000209A
:100F3000F0B502681C4B1D4D1D4E1E4F1E4C4FF050
:100F4000804C984209D0A04207D0604505D0A84205
:100F500003D0B04201D0B84204D122F0700E4A68EA
:100F600042EA0E02984209D0A04207D0604505D05F
:100F7000A84203D0B04201D0B84203D122F4407558
:100F8000CA682A434D6922F080022A4302608A68B7
:100F9000C2620A688262984201D0A04201D1096906
:100FA000016301214161F0BD002C014000040040BB
:100FB00000080040000C004000340140FEE7090733
:100FC000090E002804DB00F1E02080F800147047CF
:100FD00000F00F0000F1E02080F8141D704702E0DF
:100FE00008C8121F08C1002AFAD1704770470020B4
:100FF00001E001C1121F002AFBD170472DE9F74F14
:10100000A0B00C469246382102A8FFF7B6F8644912
:101010000125D1E90001CDE90001684600F010F991
:10102000E1B2EB46C4F307200BEBC102002383546B
:101030008DF84C108DF84D000DF14C096D1EEDB280
:101040000020139C06E000BF09EB4001401C4A88C9
:101050000A80C0B2A842F7D300261B9408E01B9474
:1010600036B1012E06D0022E07D0032E0DD108E096
:10107000601E03E0200A401C05E0601C8DF86C0037
:1010800003E0200A401E8DF86D009DF86C707F2FE4
:1010900020D89DF86D0080467F281BD83246214617
:1010A000209800F0ECF9A8B10BEBC70118F801206B
:1010B000FF2A0FD1E3B2C4F307220BEBC300105C8D
:1010C000401C08F8010009EB45006D1CBDF86C10D0
:1010D000EDB20180761CF6B2042EC0D3002DADD146
:1010E00054466AF307044FEA1A2060F30F244BE0DA
:1010F00000251B9408E01B9435B1012D06D0022D6C
:1011000007D0032D0DD108E0601E03E0200A401C2B
:1011100005E0601C8DF86C0003E0200A401E8DF88D
:101120006D009DF86C007F282AD89DF86D007F28FF
:1011300026D82A462146209800F0A1F900B39DF850
:101140006C209DF86D100BEBC202E3B2895CC4F316
:1011500007220BEBC300105C401E814210D19DF8AA
:101160006C2020999DF86D0001EBC2020F23815C79
:1011700043EA051341F0F001194081541B9C03E040
:101180006D1CEDB2042DB6D314F0FF0FB0D1C4F333
:1011900007200028ACD123B00120BDE8F08F00006B
:1011A0005416000810B504460A2802D9002000F0A1
:1011B000C5F92046BDE81040FFF700B8F0B50F466E
:1011C0000646FBB2C1F3072100EBC300085C04092B
:1011D00092B900252A463946304600F050F938B118
:1011E0002A463946304600F022F908B12846F0BDBB
:1011F0006D1CEDB2042DEDD3012C00D8A61C022CE1
:1012000001D3A41EE6B23046F0BD00000B49012810
:1012100009D0022809D0032809D0042809D00528BC
:1012200009D0002070470878704748787047887860
:101230007047C878704708797047000000000020A8
:1012400010B50022FF24002100EBC2035C54491CAE
:10125000C9B20829FAD3521CD2B2082AF3D310BD5E
:1012600070B5401EC4B20F4DE00701D0012200E06E
:10127000002201212846FFF7B4F8A00701D501227A
:1012800000E0002202212846FFF7ABF8600701D5F5
:10129000012200E000222846BDE870400421FFF74B
:1012A000A0B8000000100140081AC11700EB9171AE
:1012B00021F00301401AC0B27E2801D3001DC0B244
:1012C000704770B5C1F30726C9B200EBC105705D68
:1012D000FF2815D1F024002319461046FFF7E4FF3C
:1012E00000F01EF9984020435B1CDBB2C4B2042B13
:1012F000F2D3705D0F21204041EA02110840705581
:1013000070BD00002DE9F0439BB0FFF77DF8FFF7BB
:10131000D9FDFFF74FFDFFF7ABFD2E48FFF700FCAF
:10132000382102A8FEF729FF2B494FF00008454657
:10133000D1E90201CDE900010726012065F3070488
:1013400066F307078DF84C0065F30F2466F30F274B
:10135000B94668461094FFF773FF4FF4FA7730E010
:101360009DF84120B24209D1B8F1010F06D13846AB
:10137000FFF718FF1BB00020BDE8F083A84210D192
:101380009DF84110A9420CD19DF84C00032808D1CA
:101390003846FFF707FF4A4621466846FFF72EFE0C
:1013A00080469DF84C2068461099FFF78AFF424618
:1013B00068461099FFF702FF024613A910A800F033
:1013C0000DF83846FFF7EEFE9DF84000B042D5D14B
:1013D000C6E70000340000205416000870B503462C
:1013E0000D4608781146FFF75FFF044632B1012A27
:1013F00007D0022A08D0032A0AD00CE01878401E31
:1014000004E05878401C05E01878401C187002E091
:101410005878401E58702A70204600F03BF8002C87
:1014200004D0BDE87040002000F034B870BD30B585
:10143000C1F307252B180F24C8B232B1012A09D0F5
:10144000022A12D0032A14D017E000280CD06FF023
:10145000070102E0072D10D0012101EBC000185C4C
:10146000B4EB101F09D1012030BD072805D0082199
:10147000F3E715B14FF0FF31EFE7002030BDC1F3C6
:101480000723C9B200EBC100185CD04040F3000054
:10149000401C70472DE9F041050006D0012D08D011
:1014A000032D06D0022D07D004E0662600273C4617
:1014B00017E0282600272CE0512600270024012DC4
:1014C00001D0022D03D11548005D00F037F8032D3F
:1014D00001D035B114E011480830005D00F02EF85D
:1014E0000EE00E481030005D00F028F8204600F0B5
:1014F00079F8044609480C380089A6EB1010C6B2EA
:101500000120FFF74FFE641CE4B2082CD7D37F1CE8
:10151000FFB2B742D2D3BDE8F08100000C0000203A
:1015200028B1012805D0032805D0002070470320EA
:1015300002E0052000E00120FFF768BE70B5044618
:10154000274DC00701D0012200E0002201212846DA
:10155000FEF747FFA00701D5012200E0002202218B
:101560002846FEF73EFF600701D5012200E0002279
:1015700004212846FEF735FF200701D5012200E0AF
:10158000002208212846FEF72CFFE0064FF4807168
:1015900001D5012200E000222846FEF722FFA00626
:1015A0004FF4007101D5012200E000222846FEF729
:1015B00018FF60064FF4806101D5012200E000228F
:1015C0002846FEF70EFF20064FF4006101D50122E8
:1015D00000E000222846BDE87040FEF702BF000090
:1015E0000008014070B51A4D04460020A8601FE0B5
:1015F0000220FFF70BFE28B115480C30005D40F0CB
:10160000F00008E00420FFF701FE40B1104814305C
:10161000005D40F00F00641CE4B2FFF78FFF082C60
:1016200000D10024A868401CA8600320FFF7BAFD81
:101630000220FFF7EBFD18B90420FFF7E7FD20B10A
:101640000320FFF7E3FD0028D2D0204670BD000044
:1016500000000020FF00000000000000FF0000006C
:101660000000000000000000000000000102030470
:101670000607080994160008000000203400000046
:10168000DE0F0008C8160008340000204C040000DB
:10169000EE0F000800000000000001000000000044
:1016A0001133226644CC8899119988CC4466223340
:1016B000119382C6446C283901000000100000001C
:0816C000000000000024F4000A
:0400000508000131BD
:00000001FF
